{"abi":[{"type":"constructor","inputs":[],"stateMutability":"nonpayable"},{"type":"receive","stateMutability":"payable"},{"type":"function","name":"MIN_OPERATOR_STAKE","inputs":[],"outputs":[{"name":"","type":"uint256","internalType":"uint256"}],"stateMutability":"view"},{"type":"function","name":"UPGRADE_INTERFACE_VERSION","inputs":[],"outputs":[{"name":"","type":"string","internalType":"string"}],"stateMutability":"view"},{"type":"function","name":"blueprintId","inputs":[],"outputs":[{"name":"","type":"uint64","internalType":"uint64"}],"stateMutability":"view"},{"type":"function","name":"blueprintOwner","inputs":[],"outputs":[{"name":"","type":"address","internalType":"address"}],"stateMutability":"view"},{"type":"function","name":"canJoin","inputs":[{"name":"","type":"uint64","internalType":"uint64"},{"name":"operator","type":"address","internalType":"address"}],"outputs":[{"name":"","type":"bool","internalType":"bool"}],"stateMutability":"view"},{"type":"function","name":"canLeave","inputs":[{"name":"","type":"uint64","internalType":"uint64"},{"name":"","type":"address","internalType":"address"}],"outputs":[{"name":"","type":"bool","internalType":"bool"}],"stateMutability":"view"},{"type":"function","name":"configureModel","inputs":[{"name":"model","type":"string","internalType":"string"},{"name":"minGpuVramMib","type":"uint32","internalType":"uint32"},{"name":"maxEpochs","type":"uint32","internalType":"uint32"},{"name":"pricePerEpoch","type":"uint64","internalType":"uint64"}],"outputs":[],"stateMutability":"nonpayable"},{"type":"function","name":"disableModel","inputs":[{"name":"model","type":"string","internalType":"string"}],"outputs":[],"stateMutability":"nonpayable"},{"type":"function","name":"getAggregationThreshold","inputs":[{"name":"","type":"uint64","internalType":"uint64"},{"name":"","type":"uint8","internalType":"uint8"}],"outputs":[{"name":"","type":"uint16","internalType":"uint16"},{"name":"","type":"uint8","internalType":"uint8"}],"stateMutability":"pure"},{"type":"function","name":"getExitConfig","inputs":[{"name":"","type":"uint64","internalType":"uint64"}],"outputs":[{"name":"","type":"bool","internalType":"bool"},{"name":"","type":"uint64","internalType":"uint64"},{"name":"","type":"uint64","internalType":"uint64"},{"name":"","type":"bool","internalType":"bool"}],"stateMutability":"pure"},{"type":"function","name":"getHeartbeatInterval","inputs":[{"name":"","type":"uint64","internalType":"uint64"}],"outputs":[{"name":"","type":"bool","internalType":"bool"},{"name":"","type":"uint64","internalType":"uint64"}],"stateMutability":"pure"},{"type":"function","name":"getHeartbeatThreshold","inputs":[{"name":"","type":"uint64","internalType":"uint64"}],"outputs":[{"name":"useDefault","type":"bool","internalType":"bool"},{"name":"threshold","type":"uint8","internalType":"uint8"}],"stateMutability":"view"},{"type":"function","name":"getMinOperatorStake","inputs":[],"outputs":[{"name":"","type":"bool","internalType":"bool"},{"name":"","type":"uint256","internalType":"uint256"}],"stateMutability":"pure"},{"type":"function","name":"getModelConfig","inputs":[{"name":"model","type":"string","internalType":"string"}],"outputs":[{"name":"","type":"tuple","internalType":"struct FinetuneBSM.ModelConfig","components":[{"name":"minGpuVramMib","type":"uint32","internalType":"uint32"},{"name":"maxEpochs","type":"uint32","internalType":"uint32"},{"name":"pricePerEpoch","type":"uint64","internalType":"uint64"},{"name":"enabled","type":"bool","internalType":"bool"}]}],"stateMutability":"view"},{"type":"function","name":"getNonPaymentTerminationPolicy","inputs":[{"name":"","type":"uint64","internalType":"uint64"}],"outputs":[{"name":"useDefault","type":"bool","internalType":"bool"},{"name":"graceIntervals","type":"uint64","internalType":"uint64"}],"stateMutability":"view"},{"type":"function","name":"getOperatorCount","inputs":[],"outputs":[{"name":"","type":"uint256","internalType":"uint256"}],"stateMutability":"view"},{"type":"function","name":"getOperatorPricing","inputs":[{"name":"operator","type":"address","internalType":"address"}],"outputs":[{"name":"pricePerEpoch","type":"uint64","internalType":"uint64"},{"name":"endpoint","type":"string","internalType":"string"}],"stateMutability":"view"},{"type":"function","name":"getOperators","inputs":[],"outputs":[{"name":"","type":"address[]","internalType":"address[]"}],"stateMutability":"view"},{"type":"function","name":"getPaymentSplit","inputs":[{"name":"jobId","type":"uint64","internalType":"uint64"}],"outputs":[{"name":"operators","type":"address[]","internalType":"address[]"},{"name":"amounts","type":"uint64[]","internalType":"uint64[]"}],"stateMutability":"view"},{"type":"function","name":"getRequiredResultCount","inputs":[{"name":"","type":"uint64","internalType":"uint64"},{"name":"","type":"uint8","internalType":"uint8"}],"outputs":[{"name":"","type":"uint32","internalType":"uint32"}],"stateMutability":"view"},{"type":"function","name":"getSlashingWindow","inputs":[{"name":"","type":"uint64","internalType":"uint64"}],"outputs":[{"name":"useDefault","type":"bool","internalType":"bool"},{"name":"window","type":"uint64","internalType":"uint64"}],"stateMutability":"view"},{"type":"function","name":"initialize","inputs":[{"name":"_tsUSD","type":"address","internalType":"address"}],"outputs":[],"stateMutability":"nonpayable"},{"type":"function","name":"isOperatorActive","inputs":[{"name":"operator","type":"address","internalType":"address"}],"outputs":[{"name":"","type":"bool","internalType":"bool"}],"stateMutability":"view"},{"type":"function","name":"jobContributions","inputs":[{"name":"","type":"uint64","internalType":"uint64"},{"name":"","type":"address","internalType":"address"}],"outputs":[{"name":"gpuHoursContributed","type":"uint64","internalType":"uint64"},{"name":"stepsCompleted","type":"uint64","internalType":"uint64"},{"name":"joinedAtEpoch","type":"uint32","internalType":"uint32"},{"name":"leftAtEpoch","type":"uint32","internalType":"uint32"},{"name":"active","type":"bool","internalType":"bool"}],"stateMutability":"view"},{"type":"function","name":"jobOperators","inputs":[{"name":"","type":"uint64","internalType":"uint64"},{"name":"","type":"uint256","internalType":"uint256"}],"outputs":[{"name":"","type":"address","internalType":"address"}],"stateMutability":"view"},{"type":"function","name":"joinTraining","inputs":[{"name":"jobId","type":"uint64","internalType":"uint64"}],"outputs":[],"stateMutability":"nonpayable"},{"type":"function","name":"leaveTraining","inputs":[{"name":"jobId","type":"uint64","internalType":"uint64"}],"outputs":[],"stateMutability":"nonpayable"},{"type":"function","name":"modelConfigs","inputs":[{"name":"","type":"bytes32","internalType":"bytes32"}],"outputs":[{"name":"minGpuVramMib","type":"uint32","internalType":"uint32"},{"name":"maxEpochs","type":"uint32","internalType":"uint32"},{"name":"pricePerEpoch","type":"uint64","internalType":"uint64"},{"name":"enabled","type":"bool","internalType":"bool"}],"stateMutability":"view"},{"type":"function","name":"onAggregatedResult","inputs":[{"name":"","type":"uint64","internalType":"uint64"},{"name":"","type":"uint8","internalType":"uint8"},{"name":"","type":"uint64","internalType":"uint64"},{"name":"","type":"bytes","internalType":"bytes"},{"name":"","type":"uint256","internalType":"uint256"},{"name":"","type":"uint256[2]","internalType":"uint256[2]"},{"name":"","type":"uint256[4]","internalType":"uint256[4]"}],"outputs":[],"stateMutability":"nonpayable"},{"type":"function","name":"onApprove","inputs":[{"name":"","type":"address","internalType":"address"},{"name":"","type":"uint64","internalType":"uint64"},{"name":"","type":"uint8","internalType":"uint8"}],"outputs":[],"stateMutability":"payable"},{"type":"function","name":"onBlueprintCreated","inputs":[{"name":"_blueprintId","type":"uint64","internalType":"uint64"},{"name":"owner","type":"address","internalType":"address"},{"name":"_tangleCore","type":"address","internalType":"address"}],"outputs":[],"stateMutability":"nonpayable"},{"type":"function","name":"onExitCanceled","inputs":[{"name":"","type":"uint64","internalType":"uint64"},{"name":"","type":"address","internalType":"address"}],"outputs":[],"stateMutability":"nonpayable"},{"type":"function","name":"onExitScheduled","inputs":[{"name":"","type":"uint64","internalType":"uint64"},{"name":"","type":"address","internalType":"address"},{"name":"","type":"uint64","internalType":"uint64"}],"outputs":[],"stateMutability":"nonpayable"},{"type":"function","name":"onJobCall","inputs":[{"name":"serviceId","type":"uint64","internalType":"uint64"},{"name":"","type":"uint8","internalType":"uint8"},{"name":"jobCallId","type":"uint64","internalType":"uint64"},{"name":"inputs","type":"bytes","internalType":"bytes"}],"outputs":[],"stateMutability":"payable"},{"type":"function","name":"onJobResult","inputs":[{"name":"serviceId","type":"uint64","internalType":"uint64"},{"name":"","type":"uint8","internalType":"uint8"},{"name":"jobCallId","type":"uint64","internalType":"uint64"},{"name":"operator","type":"address","internalType":"address"},{"name":"","type":"bytes","internalType":"bytes"},{"name":"outputs","type":"bytes","internalType":"bytes"}],"outputs":[],"stateMutability":"payable"},{"type":"function","name":"onOperatorJoined","inputs":[{"name":"","type":"uint64","internalType":"uint64"},{"name":"","type":"address","internalType":"address"},{"name":"","type":"uint16","internalType":"uint16"}],"outputs":[],"stateMutability":"nonpayable"},{"type":"function","name":"onOperatorLeft","inputs":[{"name":"","type":"uint64","internalType":"uint64"},{"name":"","type":"address","internalType":"address"}],"outputs":[],"stateMutability":"nonpayable"},{"type":"function","name":"onRegister","inputs":[{"name":"operator","type":"address","internalType":"address"},{"name":"registrationInputs","type":"bytes","internalType":"bytes"}],"outputs":[],"stateMutability":"payable"},{"type":"function","name":"onReject","inputs":[{"name":"","type":"address","internalType":"address"},{"name":"","type":"uint64","internalType":"uint64"}],"outputs":[],"stateMutability":"nonpayable"},{"type":"function","name":"onRequest","inputs":[{"name":"","type":"uint64","internalType":"uint64"},{"name":"","type":"address","internalType":"address"},{"name":"","type":"address[]","internalType":"address[]"},{"name":"","type":"bytes","internalType":"bytes"},{"name":"","type":"uint64","internalType":"uint64"},{"name":"paymentAsset","type":"address","internalType":"address"},{"name":"","type":"uint256","internalType":"uint256"}],"outputs":[],"stateMutability":"payable"},{"type":"function","name":"onServiceInitialized","inputs":[{"name":"","type":"uint64","internalType":"uint64"},{"name":"","type":"uint64","internalType":"uint64"},{"name":"serviceId","type":"uint64","internalType":"uint64"},{"name":"","type":"address","internalType":"address"},{"name":"","type":"address[]","internalType":"address[]"},{"name":"","type":"uint64","internalType":"uint64"}],"outputs":[],"stateMutability":"nonpayable"},{"type":"function","name":"onServiceTermination","inputs":[{"name":"","type":"uint64","internalType":"uint64"},{"name":"","type":"address","internalType":"address"}],"outputs":[],"stateMutability":"nonpayable"},{"type":"function","name":"onSlash","inputs":[{"name":"","type":"uint64","internalType":"uint64"},{"name":"","type":"bytes","internalType":"bytes"},{"name":"","type":"uint8","internalType":"uint8"}],"outputs":[],"stateMutability":"nonpayable"},{"type":"function","name":"onUnappliedSlash","inputs":[{"name":"","type":"uint64","internalType":"uint64"},{"name":"","type":"bytes","internalType":"bytes"},{"name":"","type":"uint8","internalType":"uint8"}],"outputs":[],"stateMutability":"nonpayable"},{"type":"function","name":"onUnregister","inputs":[{"name":"operator","type":"address","internalType":"address"}],"outputs":[],"stateMutability":"nonpayable"},{"type":"function","name":"onUpdatePreferences","inputs":[{"name":"operator","type":"address","internalType":"address"},{"name":"newPreferences","type":"bytes","internalType":"bytes"}],"outputs":[],"stateMutability":"payable"},{"type":"function","name":"operatorCaps","inputs":[{"name":"","type":"address","internalType":"address"}],"outputs":[{"name":"gpuCount","type":"uint32","internalType":"uint32"},{"name":"totalVramMib","type":"uint32","internalType":"uint32"},{"name":"endpoint","type":"string","internalType":"string"},{"name":"active","type":"bool","internalType":"bool"}],"stateMutability":"view"},{"type":"function","name":"proxiableUUID","inputs":[],"outputs":[{"name":"","type":"bytes32","internalType":"bytes32"}],"stateMutability":"view"},{"type":"function","name":"queryDeveloperPaymentAddress","inputs":[{"name":"","type":"uint64","internalType":"uint64"}],"outputs":[{"name":"","type":"address","internalType":"address payable"}],"stateMutability":"view"},{"type":"function","name":"queryDisputeOrigin","inputs":[{"name":"","type":"uint64","internalType":"uint64"}],"outputs":[{"name":"","type":"address","internalType":"address"}],"stateMutability":"view"},{"type":"function","name":"queryIsPaymentAssetAllowed","inputs":[{"name":"serviceId","type":"uint64","internalType":"uint64"},{"name":"asset","type":"address","internalType":"address"}],"outputs":[{"name":"","type":"bool","internalType":"bool"}],"stateMutability":"view"},{"type":"function","name":"querySlashingOrigin","inputs":[{"name":"","type":"uint64","internalType":"uint64"}],"outputs":[{"name":"","type":"address","internalType":"address"}],"stateMutability":"view"},{"type":"function","name":"recordContribution","inputs":[{"name":"jobId","type":"uint64","internalType":"uint64"},{"name":"operator","type":"address","internalType":"address"},{"name":"gpuHours","type":"uint64","internalType":"uint64"},{"name":"steps","type":"uint64","internalType":"uint64"}],"outputs":[],"stateMutability":"nonpayable"},{"type":"function","name":"requiresAggregation","inputs":[{"name":"","type":"uint64","internalType":"uint64"},{"name":"","type":"uint8","internalType":"uint8"}],"outputs":[{"name":"","type":"bool","internalType":"bool"}],"stateMutability":"view"},{"type":"function","name":"submitCheckpoint","inputs":[{"name":"jobId","type":"uint64","internalType":"uint64"},{"name":"checkpointHash","type":"bytes32","internalType":"bytes32"},{"name":"epoch","type":"uint32","internalType":"uint32"}],"outputs":[],"stateMutability":"nonpayable"},{"type":"function","name":"tangleCore","inputs":[],"outputs":[{"name":"","type":"address","internalType":"address"}],"stateMutability":"view"},{"type":"function","name":"trainingJobs","inputs":[{"name":"","type":"uint64","internalType":"uint64"}],"outputs":[{"name":"currentEpoch","type":"uint32","internalType":"uint32"},{"name":"totalEpochs","type":"uint32","internalType":"uint32"},{"name":"operatorCount","type":"uint32","internalType":"uint32"},{"name":"latestCheckpointHash","type":"bytes32","internalType":"bytes32"},{"name":"totalPayment","type":"uint64","internalType":"uint64"},{"name":"completed","type":"bool","internalType":"bool"}],"stateMutability":"view"},{"type":"function","name":"tsUSD","inputs":[],"outputs":[{"name":"","type":"address","internalType":"address"}],"stateMutability":"view"},{"type":"function","name":"upgradeToAndCall","inputs":[{"name":"newImplementation","type":"address","internalType":"address"},{"name":"data","type":"bytes","internalType":"bytes"}],"outputs":[],"stateMutability":"payable"},{"type":"event","name":"CheckpointSubmitted","inputs":[{"name":"jobId","type":"uint64","indexed":true,"internalType":"uint64"},{"name":"checkpointHash","type":"bytes32","indexed":false,"internalType":"bytes32"},{"name":"epoch","type":"uint32","indexed":false,"internalType":"uint32"}],"anonymous":false},{"type":"event","name":"FinetuneJobSubmitted","inputs":[{"name":"serviceId","type":"uint64","indexed":true,"internalType":"uint64"},{"name":"jobCallId","type":"uint64","indexed":true,"internalType":"uint64"},{"name":"baseModel","type":"string","indexed":false,"internalType":"string"},{"name":"method","type":"string","indexed":false,"internalType":"string"}],"anonymous":false},{"type":"event","name":"FinetuneResultSubmitted","inputs":[{"name":"serviceId","type":"uint64","indexed":true,"internalType":"uint64"},{"name":"jobCallId","type":"uint64","indexed":true,"internalType":"uint64"},{"name":"jobId","type":"string","indexed":false,"internalType":"string"},{"name":"status","type":"string","indexed":false,"internalType":"string"}],"anonymous":false},{"type":"event","name":"Initialized","inputs":[{"name":"version","type":"uint64","indexed":false,"internalType":"uint64"}],"anonymous":false},{"type":"event","name":"ModelConfigured","inputs":[{"name":"model","type":"string","indexed":false,"internalType":"string"},{"name":"minGpuVramMib","type":"uint32","indexed":false,"internalType":"uint32"},{"name":"maxEpochs","type":"uint32","indexed":false,"internalType":"uint32"},{"name":"pricePerEpoch","type":"uint64","indexed":false,"internalType":"uint64"}],"anonymous":false},{"type":"event","name":"OperatorJoinedTraining","inputs":[{"name":"jobId","type":"uint64","indexed":true,"internalType":"uint64"},{"name":"operator","type":"address","indexed":true,"internalType":"address"},{"name":"epoch","type":"uint32","indexed":false,"internalType":"uint32"}],"anonymous":false},{"type":"event","name":"OperatorLeftTraining","inputs":[{"name":"jobId","type":"uint64","indexed":true,"internalType":"uint64"},{"name":"operator","type":"address","indexed":true,"internalType":"address"},{"name":"epoch","type":"uint32","indexed":false,"internalType":"uint32"}],"anonymous":false},{"type":"event","name":"OperatorRegistered","inputs":[{"name":"operator","type":"address","indexed":true,"internalType":"address"},{"name":"gpuCount","type":"uint32","indexed":false,"internalType":"uint32"},{"name":"totalVramMib","type":"uint32","indexed":false,"internalType":"uint32"}],"anonymous":false},{"type":"event","name":"PaymentDistributed","inputs":[{"name":"jobId","type":"uint64","indexed":true,"internalType":"uint64"},{"name":"operator","type":"address","indexed":true,"internalType":"address"},{"name":"amount","type":"uint64","indexed":false,"internalType":"uint64"}],"anonymous":false},{"type":"event","name":"Upgraded","inputs":[{"name":"implementation","type":"address","indexed":true,"internalType":"address"}],"anonymous":false},{"type":"error","name":"AddressEmptyCode","inputs":[{"name":"target","type":"address","internalType":"address"}]},{"type":"error","name":"AlreadyInitialized","inputs":[]},{"type":"error","name":"ERC1967InvalidImplementation","inputs":[{"name":"implementation","type":"address","internalType":"address"}]},{"type":"error","name":"ERC1967NonPayable","inputs":[]},{"type":"error","name":"EpochsExceedMax","inputs":[{"name":"requested","type":"uint32","internalType":"uint32"},{"name":"max","type":"uint32","internalType":"uint32"}]},{"type":"error","name":"FailedCall","inputs":[]},{"type":"error","name":"InsufficientGpuCapability","inputs":[{"name":"required","type":"uint32","internalType":"uint32"},{"name":"provided","type":"uint32","internalType":"uint32"}]},{"type":"error","name":"InvalidInitialization","inputs":[]},{"type":"error","name":"InvalidPaymentAsset","inputs":[{"name":"asset","type":"address","internalType":"address"}]},{"type":"error","name":"MethodNotSupported","inputs":[{"name":"method","type":"string","internalType":"string"}]},{"type":"error","name":"ModelNotSupported","inputs":[{"name":"model","type":"string","internalType":"string"}]},{"type":"error","name":"NotInitializing","inputs":[]},{"type":"error","name":"OnlyBlueprintOwnerAllowed","inputs":[{"name":"caller","type":"address","internalType":"address"},{"name":"owner","type":"address","internalType":"address"}]},{"type":"error","name":"OnlyTangleAllowed","inputs":[{"name":"caller","type":"address","internalType":"address"},{"name":"tangle","type":"address","internalType":"address"}]},{"type":"error","name":"OperatorNotRegistered","inputs":[{"name":"operator","type":"address","internalType":"address"}]},{"type":"error","name":"UUPSUnauthorizedCallContext","inputs":[]},{"type":"error","name":"UUPSUnsupportedProxiableUUID","inputs":[{"name":"slot","type":"bytes32","internalType":"bytes32"}]}],"bytecode":{"object":"0x60a080604052346100e857306080527ff0c57e16840df040f15088dc2f81fe391c3923bec73e23a9662efc9c229c6a005460ff8160401c166100d9576002600160401b03196001600160401b03821601610073575b604051612ef390816100ed82396080518181816117ea015261188c0152f35b6001600160401b0319166001600160401b039081177ff0c57e16840df040f15088dc2f81fe391c3923bec73e23a9662efc9c229c6a005581527fc7f505b2f371ae2175ee4913f4499e1f2633a7b5936321eed1cdaeb6115181d290602090a15f80610054565b63f92ee8a960e01b5f5260045ffd5b5f80fdfe608080604052600436101561001c575b50361561001a575f80fd5b005b5f3560e01c90816268080b146123bb5750806308179f35146123895780630824bd46146122fe5780630881898f14610e805780630b6535d7146122635780630e94e1a61461220457806314b4df4c14610f1c578063151a4576146121b9578063158bb2eb1461215257806319ed5bb2146121255780631a4a7c61146121085780631a74f8ae146120bf5780631e8606eb14611fe85780632378aebb14611d7857806325fcc64e14611d4657806327a099d814611cbe5780633d78151714611b915780633fdadfcc14610f215780634299b96014611b3357806342c57ed114611a9a5780634553335914611a725780634c443e0414611a505780634f1ef2861461183e57806352d1902d146117d857806352da38a8146116195780635440662c14610bec57806354dce6c2146115f15780635a936dc6146115ca57806362e894191461154b57806367793cc614610f2657806371e8e85d14610f2157806374ceeb5514610f1c5780637762c8e514610e9a5780637e14b91914610e8057806382a1ece414610df157806392cbb78e14610dc7578063965d231b14610bec5780639838caa314610c465780639aa26a9214610c0e578063a24e8a9014610bec578063ad3cb1cc14610ba1578063b159eb3414610b7b578063b47242e814610b54578063c28cd81214610a98578063c40c80d114610940578063c4d66de8146107d1578063c727472f146106f9578063c9cd4a18146106d7578063cb110dc114610647578063d2672ed41461060c578063d856433a146105e9578063e0559c63146105b5578063e390fcdb14610589578063e518de761461055b578063eb47353314610516578063f3e4657b14610460578063f58e206614610304578063f8407662146102dc5763fe0b15e7146102b0575f61000f565b346102d8575f3660031901126102d85760206001600160401b035f5460a01c16604051908152f35b5f80fd5b346102d8575f3660031901126102d8576001546040516001600160a01b039091168152602090f35b61030d366126a6565b610315612c76565b81016020828203126102d85781356001600160401b0381116102d85761033b9201612ad8565b9060018060a01b03165f526004602052600360405f200181516001600160401b03811161044c5761036c8254612719565b601f8111610411575b50602092601f82116001146103b5576103a6929382915f926103aa575b50508160011b915f199060031b1c19161790565b9055005b015190508480610392565b601f19821693835f52805f20915f5b8681106103f957508360019596106103e1575b505050811b019055005b01515f1960f88460031b161c191690558380806103d7565b919260206001819286850151815501940192016103c4565b61043c90835f5260205f20601f840160051c81019160208510610442575b601f0160051c0190612b71565b83610375565b909150819061042f565b634e487b7160e01b5f52604160045260245ffd5b346102d85760603660031901126102d8576104796123e4565b7fd8f27d804bad3ffd069aaf85f6b2d1a9de59b2ba18cceec151b72a184589f9b2604060243563ffffffff6001600160401b036104b4612682565b951694855f526008602052835f2060018060a01b0333165f526020526104e260ff855f205460c01c16612876565b855f526009602052826001855f200155855f526009602052835f2082821683198254161790558351928352166020820152a2005b346102d85760203660031901126102d857602061055161053461251c565b60018060a01b03165f52600460205260ff600460405f2001541690565b6040519015158152f35b346102d85760403660031901126102d8576105746123e4565b5061057d612506565b50602060405160018152f35b346102d85760403660031901126102d85760206105516105a76123e4565b6105af612506565b90612bac565b346102d85760603660031901126102d8576105ce6123e4565b506105d7612506565b506105e06123fa565b5061001a612c76565b346102d8575f3660031901126102d857602060405168056bc75e2d631000008152f35b346102d85760203660031901126102d8576106256123e4565b5060806040515f8152610e106020820152610e10604082015260016060820152f35b346102d85760203660031901126102d8576001600160a01b0361066861251c565b165f52600460205263ffffffff60405f206002810154906106cb60ff6004604051936106a28561069b8160038501612751565b0386612610565b01541691604051948481879616865260201c166020850152608060408501526080840190612595565b90151560608301520390f35b346102d85760403660031901126102d8576106f061251c565b506105e0612426565b346102d85760203660031901126102d8576004356001600160401b0381116102d85761072c610753913690600401612468565b5f606060405161073b816125f5565b8281528260208201528260408201520152369161264c565b602081519101205f526005602052608060405f2060405190610774826125f5565b546001600160401b0363ffffffff82169283815263ffffffff60208201818560201c16815260ff60606040850194868860401c1686520195881c161515855260405195865251166020850152511660408301525115156060820152f35b346102d85760203660031901126102d8576107ea61251c565b5f80516020612e9e8339815191525460ff8160401c1615906001600160401b03811680159081610938575b600114908161092e575b159081610925575b506109165767ffffffffffffffff1981166001175f80516020612e9e83398151915255816108ea575b505f80516020612e9e833981519152549160ff8360401c16156108db5760018060a01b03166bffffffffffffffffffffffff60a01b600354161760035561089357005b68ff000000000000000019165f80516020612e9e833981519152557fc7f505b2f371ae2175ee4913f4499e1f2633a7b5936321eed1cdaeb6115181d2602060405160018152a1005b631afcd79f60e31b5f5260045ffd5b68ffffffffffffffffff191668010000000000000001175f80516020612e9e8339815191525582610850565b63f92ee8a960e01b5f5260045ffd5b90501584610827565b303b15915061081f565b839150610815565b60c03660031901126102d8576109546123e4565b61095c612495565b506109656123fa565b61096d612532565b6084356001600160401b0381116102d85761098c903690600401612468565b505060a4356001600160401b0381116102d8576109ad903690600401612468565b90916109b7612c76565b6001600160a01b03165f818152600460208190526040909120015460ff1615610a86575081016060828203126102d85781356001600160401b0381116102d85781610a03918401612ad8565b9260208301356001600160401b0381116102d85782610a23918501612ad8565b6040840135906001600160401b0382116102d857610a6f6001600160401b0394610a81937f929610f4b1e0544afedf0ccf89a533542cfb3107f098c221b9a7f8db7db6e2ed9701612ad8565b50836040519485941697169583612b87565b0390a3005b63bd62013360e01b5f5260045260245ffd5b60e03660031901126102d857610aac6123e4565b50610ab5612506565b506044356001600160401b0381116102d857610ad59036906004016126e9565b50506064356001600160401b0381116102d857610af6903690600401612468565b5050610b00612452565b5060a4356001600160a01b038116908190036102d857610b1e612c76565b6003546001600160a01b031681141580610b4b575b610b3957005b6395de5f2960e01b5f5260045260245ffd5b50801515610b33565b346102d85760403660031901126102d857610b6d6123e4565b506020610551610534612506565b60603660031901126102d857610b8f61251c565b50610b98612426565b506105e06124a5565b346102d8575f3660031901126102d857610be8604051610bc2604082612610565b60058152640352e302e360dc1b6020820152604051918291602083526020830190612595565b0390f35b346102d85760403660031901126102d857610c056123e4565b506105e0612506565b346102d85760603660031901126102d857610c276123e4565b50610c30612506565b5060443561ffff8116036102d85761001a612c76565b60803660031901126102d857610c5a6123e4565b610c62612495565b50610c6b6123fa565b6064356001600160401b0381116102d857610c8a903690600401612468565b610c95929192612c76565b82019160a0818403126102d85780356001600160401b0381116102d85783610cbe918301612ad8565b9260208201356001600160401b0381116102d85781610cde918401612ad8565b506040820135906001600160401b0382116102d857610cfe918301612ad8565b90610d176080610d1060608401612695565b9201612695565b50835160208501205f52600560205260405f205460ff8160801c1615610da15763ffffffff809160201c169116818111610d8c5750507f0df87704967404db4590995e617149c59e0c7b74049787238d10ecb4ecbfa95d91610a816001600160401b0392836040519485941697169583612b87565b63fc0910d960e01b5f5260045260245260445ffd5b604051633d4e53e560e11b81526020600482015280610dc36024820188612595565b0390fd5b346102d85760203660031901126102d857610de06123e4565b5060408051600181525f6020820152f35b346102d85760c03660031901126102d857610e0a6123e4565b50610e13612426565b50610e1c6123fa565b610e24612532565b50608435906001600160401b0382116102d857610e4861001a9236906004016126e9565b5050610e5261243c565b50610e5b612c76565b6001600160401b0360018060a01b036003541691165f52600260205260405f20612dd2565b346102d857610e8e366124b5565b5050505061001a612c76565b346102d85760203660031901126102d8576001600160401b03610ebb6123e4565b165f52600960205260c060405f2060ff815491600260018201549101549063ffffffff604051948181168652818160201c16602087015260401c16604085015260608401526001600160401b038116608084015260401c16151560a0820152f35b612571565b610dc7565b610f2f366126a6565b610f3a929192612c76565b82019160a0818403126102d85780356001600160401b0381116102d85783610f63918301612af3565b9260208201356001600160401b0381116102d85781610f83918401612af3565b92610f9060408401612695565b92610f9d60608201612695565b9260808201356001600160401b0381116102d857610fbb9201612ad8565b946040519060c082018281106001600160401b0382111761044c5760405281526020810194855263ffffffff6040820194169384815263ffffffff606083019416938481526080830197885260a08301936001855260018060a01b031696875f52600460205260405f209351805190600160401b821161044c5785548287558083106114d4575b505f86815260208082209392015b8282106113cf5750505050600184019051805190600160401b821161044c578254828455808310611358575b50602001915f5260205f20915f905b82821061124857505050509063ffffffff6110d592818060028701945116168219845416178355511667ffffffff0000000082549160201b169067ffffffff000000001916179055565b6003810195519586516001600160401b03811161044c576110f68254612719565b601f8111611218575b506020601f821160011461119057816004949392611154927ff261a076036706bb83ebef99ed1096bbda411a577ab8a7caaf9f4aa5d2fa90a49a9b5f926111855750508160011b915f199060031b1c19161790565b90555b019051151560ff8019835416911617905561117184612d7d565b5060408051928352602083019190915290a2005b015190508b80610392565b601f19821698835f52815f20995f5b818110611200575099600192849260049796957ff261a076036706bb83ebef99ed1096bbda411a577ab8a7caaf9f4aa5d2fa90a49c9d106111e8575b505050811b019055611157565b01515f1960f88460031b161c191690558a80806111db565b838301518c556001909b019a6020938401930161119f565b61124290835f5260205f20601f840160051c8101916020851061044257601f0160051c0190612b71565b886110ff565b80518051906001600160401b03821161044c576112658654612719565b601f8111611328575b50602090601f83116001146112bf57926112a5836001959460209487965f926112b45750508160011b915f199060031b1c19161790565b87555b0194019101909261108b565b015190505f80610392565b90601f19831691875f52815f20925f5b81811061131057509360209360019693879693838895106112f8575b505050811b0187556112a8565b01515f1960f88460031b161c191690555f80806112eb565b929360206001819287860151815501950193016112cf565b61135290875f5260205f20601f850160051c8101916020861061044257601f0160051c0190612b71565b8e61126e565b835f528260205f2091820191015b818110611373575061107c565b8061138060019254612719565b8061138d575b5001611366565b601f811183146113a257505f81555b8e611386565b6113be90825f5283601f60205f20920160051c82019101612b71565b805f525f602081208183555561139c565b80518051906001600160401b03821161044c576113ec8654612719565b601f81116114a4575b50602090601f831160011461143b579261142c836001959460209487965f926112b45750508160011b915f199060031b1c19161790565b87555b01940191019092611050565b90601f19831691875f52815f20925f5b81811061148c5750936020936001969387969383889510611474575b505050811b01875561142f565b01515f1960f88460031b161c191690555f8080611467565b9293602060018192878601518155019501930161144b565b6114ce90875f5260205f20601f850160051c8101916020861061044257601f0160051c0190612b71565b8f6113f5565b865f528260205f2091820191015b8181106114ef5750611042565b806114fc60019254612719565b80611509575b50016114e2565b601f8111831461151e57505f81555b8e611502565b61153a90825f5283601f60205f20920160051c82019101612b71565b805f525f6020812081835555611518565b346102d85760203660031901126102d85761158361156f61156a6123e4565b61292c565b6040519283926040845260408401906125b9565b8281036020840152602080835192838152019201905f5b8181106115a8575050500390f35b82516001600160401b031684528594506020938401939092019160010161159a565b346102d8575f3660031901126102d8575f546040516001600160a01b039091168152602090f35b346102d8575f3660031901126102d857604080515f815268056bc75e2d631000006020820152f35b346102d85760803660031901126102d8576004356001600160401b0381116102d857611649903690600401612468565b60243563ffffffff81168091036102d857611662612682565b9061166b612410565b6001549091906001600160a01b0316338190036117c2575060a0927fbc02911c4bfc30713d47e576c0ea7e852aaaedb81d58f5fcd99b232bcc213b08959285926116b636858761264c565b60208151910120604051906116ca826125f5565b82825261176e6001600160401b0363ffffffff6020850197169586885261174163ffffffff83604088019316998a84526060880196600188525f526005602052818060405f209951161682198954161788555116869067ffffffff0000000082549160201b169067ffffffff000000001916179055565b5184546fffffffffffffffff00000000000000001916911660401b67ffffffffffffffff60401b16178355565b51151581549060ff60801b9060801b169060ff60801b191617905560405196879560808752816080880152878701375f858501870152602085015260408401526060830152601f01601f19168101030190a1005b630b3dddb760e01b5f523360045260245260445ffd5b346102d8575f3660031901126102d8577f00000000000000000000000000000000000000000000000000000000000000006001600160a01b0316300361182f5760206040515f80516020612e7e8339815191528152f35b63703e46dd60e11b5f5260045ffd5b60403660031901126102d85761185261251c565b6024356001600160401b0381116102d857366023820112156102d85761188290369060248160040135910161264c565b6001600160a01b037f000000000000000000000000000000000000000000000000000000000000000016308114908115611a2e575b5061182f576001546001600160a01b0316338190036117c257506040516352d1902d60e01b81526001600160a01b0383169290602081600481875afa5f91816119fa575b506119135783634c9c8ce360e01b5f5260045260245ffd5b805f80516020612e7e8339815191528592036119e85750813b156119d6575f80516020612e7e83398151915280546001600160a01b031916821790557fbc7cd75a20ee27fd9adebab32041f755214dbc6bffa90cc0225b39da2e5c2d3b5f80a28151156119be575f8083602061001a95519101845af43d156119b6573d9161199a83612631565b926119a86040519485612610565b83523d5f602085013e612e1f565b606091612e1f565b5050346119c757005b63b398979f60e01b5f5260045ffd5b634c9c8ce360e01b5f5260045260245ffd5b632a87526960e21b5f5260045260245ffd5b9091506020813d602011611a26575b81611a1660209383612610565b810103126102d8575190856118fb565b3d9150611a09565b5f80516020612e7e833981519152546001600160a01b031614159050836118b7565b346102d85760403660031901126102d857611a696123e4565b5061057d612495565b346102d8575f3660031901126102d8576003546040516001600160a01b039091168152602090f35b346102d85760403660031901126102d857611ab36123e4565b6001600160401b03611ac3612506565b91165f52600860205260405f209060018060a01b03165f5260205260a060405f205460ff604051916001600160401b03811683526001600160401b038160401c16602084015263ffffffff8160801c16604084015263ffffffff81851c16606084015260c01c1615156080820152f35b346102d85760203660031901126102d8576004355f526005602052608060405f205460ff6040519163ffffffff8116835263ffffffff8160201c1660208401526001600160401b038160401c166040840152831c1615156060820152f35b346102d85760203660031901126102d8576001600160401b03611bb26123e4565b165f818152600860209081526040808320338452909152902054611bdb9060c01c60ff16612876565b5f8181526008602090815260408083203384528252808320805460ff60c01b1981168255858552600990935292819020805463ffffffff60a01b60a09190911b1664ffffffffff60a01b1990931692909217909255805490911c63ffffffff16908115611caa57611c68915f190163ffffffff60401b82549160401b169063ffffffff60401b1916179055565b805f52600960205263ffffffff60405f205416906040519182527fa44ef8359e2269f51adea41187a0b86ccdad0891ecc5e820d59bfedb5002827c60203393a3005b634e487b7160e01b5f52601160045260245ffd5b346102d8575f3660031901126102d85760405180602060065491828152019060065f527ff652222313e28459528d920b65115c16c04f3efc82aaedc97be59f3f377c0d3f905f5b818110611d3057610be885611d1c81870382612610565b6040519182916020835260208301906125b9565b8254845260209093019260019283019201611d05565b346102d85760403660031901126102d857611d5f6123e4565b50611d68612495565b50604080515f81525f6020820152f35b346102d85760203660031901126102d857611d916123e4565b335f52600460205260ff600460405f2001541615611fb2576001600160401b03165f81815260086020908152604080832033845290915290205460c01c60ff16611f7c57805f52600960205263ffffffff60405f2054166040519060a082018281106001600160401b0382111761044c5760409081525f8084526020808501828152858401948552606086018381526001608080890191825289865260088552868620338752909452938590209651875492519651915163ffffffff60a01b60a09190911b169190931b63ffffffff60801b169590941b67ffffffffffffffff60401b166001600160401b039092166001600160c01b031990911617179290921717825551815460ff60c01b191690151560c01b60ff60c01b161790555f818152600a602052604090208054600160401b81101561044c57611ed891600182018155612548565b81549060031b9033821b9160018060a01b03901b1916179055805f52600960205260405f2063ffffffff815460401c169063ffffffff8214611caa576001611f3a920163ffffffff60401b82549160401b169063ffffffff60401b1916179055565b805f52600960205263ffffffff60405f205416906040519182527fa920698db2df229986e3e476aec68f567686c80c3bb7f732b3dfd6182dca936b60203393a3005b60405162461bcd60e51b815260206004820152600e60248201526d30b63932b0b23c9034b7103537b160911b6044820152606490fd5b60405162461bcd60e51b815260206004820152600e60248201526d1b9bdd081c9959da5cdd195c995960921b6044820152606490fd5b346102d85760803660031901126102d85761001a6120046123e4565b61209861200f612506565b916120186123fa565b926001600160401b03612029612410565b92612032612c76565b165f52600860205260405f209060018060a01b03165f526020526001600160401b0361207460405f209482865461206e60ff8260c01c16612876565b166128af565b845467ffffffffffffffff191691161780845560401c6001600160401b03166128af565b67ffffffffffffffff60401b82549160401b169067ffffffffffffffff60401b1916179055565b346102d85760203660031901126102d8576001600160401b03610be86120eb6120e661251c565b6127d2565b604092919251938493168352604060208401526040830190612595565b346102d8575f3660031901126102d8576020600654604051908152f35b346102d85760403660031901126102d85761213e6123e4565b50612147612495565b5060206040515f8152f35b346102d8576101603660031901126102d85761216c6123e4565b50612175612495565b5061217e6123fa565b506064356001600160401b0381116102d85761219e903690600401612468565b50503660e4116102d85736610164116102d85761001a612c76565b346102d85760203660031901126102d85761001a6121d561251c565b6121dd612c76565b6001600160a01b03165f81815260046020819052604090912001805460ff19169055612ca2565b346102d85760403660031901126102d85761221d6123e4565b6001600160401b0360243591165f52600a60205260405f2080548210156102d85760209161224a91612548565b905460405160039290921b1c6001600160a01b03168152f35b346102d85760603660031901126102d85761227c6123e4565b612284612506565b6044356001600160a01b03811692908390036102d8575f54916001600160a01b0383166122f057600180546001600160a01b0319166001600160a01b03929092169190911790556001600160e01b031990911660a09190911b67ffffffffffffffff60a01b1617175f55005b62dc149f60e41b5f5260045ffd5b346102d85760203660031901126102d8576004356001600160401b0381116102d85761232e903690600401612468565b6001546001600160a01b0316919033839003612372576123509250369161264c565b80516020918201205f908152600590915260409020805460ff60801b19169055005b82630b3dddb760e01b5f523360045260245260445ffd5b346102d85760203660031901126102d8576123a26123e4565b506001546040516001600160a01b039091168152602090f35b346102d85760203660031901126102d8576123d46123e4565b505f815260646020820152604090f35b600435906001600160401b03821682036102d857565b604435906001600160401b03821682036102d857565b606435906001600160401b03821682036102d857565b602435906001600160401b03821682036102d857565b60a435906001600160401b03821682036102d857565b608435906001600160401b03821682036102d857565b9181601f840112156102d8578235916001600160401b0383116102d857602083818601950101116102d857565b6024359060ff821682036102d857565b6044359060ff821682036102d857565b9060606003198301126102d8576004356001600160401b03811681036102d85791602435906001600160401b0382116102d8576124f491600401612468565b909160443560ff811681036102d85790565b602435906001600160a01b03821682036102d857565b600435906001600160a01b03821682036102d857565b606435906001600160a01b03821682036102d857565b805482101561255d575f5260205f2001905f90565b634e487b7160e01b5f52603260045260245ffd5b346102d85760203660031901126102d85761258a6123e4565b506020604051308152f35b805180835260209291819084018484015e5f828201840152601f01601f1916010190565b90602080835192838152019201905f5b8181106125d65750505090565b82516001600160a01b03168452602093840193909201916001016125c9565b608081019081106001600160401b0382111761044c57604052565b90601f801991011681019081106001600160401b0382111761044c57604052565b6001600160401b03811161044c57601f01601f191660200190565b92919261265882612631565b916126666040519384612610565b8294818452818301116102d8578281602093845f960137010152565b6044359063ffffffff821682036102d857565b359063ffffffff821682036102d857565b9060406003198301126102d8576004356001600160a01b03811681036102d85791602435906001600160401b0382116102d8576126e591600401612468565b9091565b9181601f840112156102d8578235916001600160401b0383116102d8576020808501948460051b0101116102d857565b90600182811c92168015612747575b602083101461273357565b634e487b7160e01b5f52602260045260245ffd5b91607f1691612728565b5f929181549161276083612719565b80835292600181169081156127b5575060011461277c57505050565b5f9081526020812093945091925b83831061279b575060209250010190565b60018160209294939454838587010152019101919061278a565b915050602093945060ff929192191683830152151560051b010190565b60018060a01b031690815f52600460205260405f209160ff60048401541615610a8657506001820180546128225750600361281f5f936128186040518094819301612751565b0382612610565b90565b80541561255d575f5261281861284160205f2060405192838092612751565b602081519101205f526005602052600361281f6001600160401b0360405f205460401c16936128186040518094819301612751565b1561287d57565b60405162461bcd60e51b815260206004820152600a6024820152693737ba1034b7103537b160b11b6044820152606490fd5b906001600160401b03809116911601906001600160401b038211611caa57565b805182101561255d5760209160051b010190565b6001600160401b03811161044c5760051b60200190565b90612904826128e3565b6129116040519182612610565b8281528092612922601f19916128e3565b0190602036910137565b6001600160401b031690815f52600a60205260405f2091604051808460208296549384815201905f5260205f20925f5b818110612ab657505061297192500384612610565b5f90815b84518310156129ce575f8281526008602052604090206001916129c6916001600160a01b036129a4878a6128cf565b5116848060a01b03165f526020526001600160401b0360405f205416906128af565b920191612975565b6001600160401b031693841592509082612aa7576129ec82516128fa565b91815f5260096020526001600160401b03600260405f20015416915f5b8251811015612a9c575f8281526008602052604090206001600160a01b03612a3183866128cf565b511660018060a01b03165f526020526001600160401b0360405f2054168402906001600160401b038216918203611caa5786612a88576001916001600160401b038a612a7d848a6128cf565b920416905201612a09565b634e487b7160e01b5f52601260045260245ffd5b505092505092509190565b5080935061281f9150516128fa565b84546001600160a01b031683526001948501948894506020909301920161295c565b9080601f830112156102d85781602061281f9335910161264c565b9080601f830112156102d8578135612b0a816128e3565b92612b186040519485612610565b81845260208085019260051b820101918383116102d85760208201905b838210612b4457505050505090565b81356001600160401b0381116102d857602091612b6687848094880101612ad8565b815201910190612b35565b818110612b7c575050565b5f8155600101612b71565b9091612b9e61281f93604084526040840190612595565b916020818403910152612595565b6001600160a01b03909116908115612c6f576001600160401b03165f52600260205260405f2090604051808360208295549384815201905f5260205f20925f5b818110612c56575050612c0192500383612610565b815115612c44575f5b8251811015612c3d57816001600160a01b03612c2683866128cf565b511614612c3557600101612c0a565b505050600190565b5050505f90565b6003546001600160a01b031614919050565b8454835260019485019487945060209093019201612bec565b5050600190565b5f546001600160a01b031633819003612c8c5750565b63032dd5e360e11b5f523360045260245260445ffd5b5f818152600760205260409020548015612d77575f198101818111611caa576006545f19810191908211611caa57818103612d29575b5050506006548015612d15575f1901612cf2816006612548565b8154905f199060031b1b191690556006555f5260076020525f6040812055600190565b634e487b7160e01b5f52603160045260245ffd5b612d61612d3a612d4b936006612548565b90549060031b1c9283926006612548565b819391549060031b91821b915f19901b19161790565b90555f52600760205260405f20555f8080612cd8565b50505f90565b805f52600760205260405f2054155f14612dcd57600654600160401b81101561044c57612db6612d4b8260018594016006556006612548565b9055600654905f52600760205260405f2055600190565b505f90565b6001810190825f528160205260405f2054155f14612c3d578054600160401b81101561044c57612e0c612d4b826001879401855584612548565b905554915f5260205260405f2055600190565b90612e435750805115612e3457805190602001fd5b63d6bda27560e01b5f5260045ffd5b81511580612e74575b612e54575090565b639996b31560e01b5f9081526001600160a01b0391909116600452602490fd5b50803b15612e4c56fe360894a13ba1a3210667c828492db98dca3e2076cc3735a920a3ca505d382bbcf0c57e16840df040f15088dc2f81fe391c3923bec73e23a9662efc9c229c6a00a26469706673582212207e21422851c464b89a9d7740807d3009bc884988dd0c1d09e5ed7a107be042f564736f6c634300081a0033","linkReferences":{}},"methodIdentifiers":{"MIN_OPERATOR_STAKE()":"d856433a","UPGRADE_INTERFACE_VERSION()":"ad3cb1cc","blueprintId()":"fe0b15e7","blueprintOwner()":"f8407662","canJoin(uint64,address)":"b47242e8","canLeave(uint64,address)":"e518de76","configureModel(string,uint32,uint32,uint64)":"52da38a8","disableModel(string)":"0824bd46","getAggregationThreshold(uint64,uint8)":"25fcc64e","getExitConfig(uint64)":"d2672ed4","getHeartbeatInterval(uint64)":"0068080b","getHeartbeatThreshold(uint64)":"92cbb78e","getMinOperatorStake()":"54dce6c2","getModelConfig(string)":"c727472f","getNonPaymentTerminationPolicy(uint64)":"71e8e85d","getOperatorCount()":"1a4a7c61","getOperatorPricing(address)":"1a74f8ae","getOperators()":"27a099d8","getPaymentSplit(uint64)":"62e89419","getRequiredResultCount(uint64,uint8)":"4c443e04","getSlashingWindow(uint64)":"3fdadfcc","initialize(address)":"c4d66de8","isOperatorActive(address)":"eb473533","jobContributions(uint64,address)":"42c57ed1","jobOperators(uint64,uint256)":"0e94e1a6","joinTraining(uint64)":"2378aebb","leaveTraining(uint64)":"3d781517","modelConfigs(bytes32)":"4299b960","onAggregatedResult(uint64,uint8,uint64,bytes,uint256,uint256[2],uint256[4])":"158bb2eb","onApprove(address,uint64,uint8)":"b159eb34","onBlueprintCreated(uint64,address,address)":"0b6535d7","onExitCanceled(uint64,address)":"5440662c","onExitScheduled(uint64,address,uint64)":"e0559c63","onJobCall(uint64,uint8,uint64,bytes)":"9838caa3","onJobResult(uint64,uint8,uint64,address,bytes,bytes)":"c40c80d1","onOperatorJoined(uint64,address,uint16)":"9aa26a92","onOperatorLeft(uint64,address)":"965d231b","onRegister(address,bytes)":"67793cc6","onReject(address,uint64)":"c9cd4a18","onRequest(uint64,address,address[],bytes,uint64,address,uint256)":"c28cd812","onServiceInitialized(uint64,uint64,uint64,address,address[],uint64)":"82a1ece4","onServiceTermination(uint64,address)":"a24e8a90","onSlash(uint64,bytes,uint8)":"7e14b919","onUnappliedSlash(uint64,bytes,uint8)":"0881898f","onUnregister(address)":"151a4576","onUpdatePreferences(address,bytes)":"f58e2066","operatorCaps(address)":"cb110dc1","proxiableUUID()":"52d1902d","queryDeveloperPaymentAddress(uint64)":"08179f35","queryDisputeOrigin(uint64)":"14b4df4c","queryIsPaymentAssetAllowed(uint64,address)":"e390fcdb","querySlashingOrigin(uint64)":"74ceeb55","recordContribution(uint64,address,uint64,uint64)":"1e8606eb","requiresAggregation(uint64,uint8)":"19ed5bb2","submitCheckpoint(uint64,bytes32,uint32)":"f3e4657b","tangleCore()":"5a936dc6","trainingJobs(uint64)":"7762c8e5","tsUSD()":"45533359","upgradeToAndCall(address,bytes)":"4f1ef286"},"id":37}